:0200000460009A
:1000000000000120910100007F0300008103000037
:100010008303000085030000870300000000000048
:100020000000000000000000000000008903000044
:100030008B030000000000008D0300008F03000010
:100040009103000093030000991D0000BD1D0000F6
:10005000990300009B0300009D0300009F03000024
:10006000A1030000A3030000E90500000D06000045
:10007000A9030000AB030000AD030000AF030000C4
:10008000B1030000B3030000B5030000A90900009C
:10009000B9030000BB030000BD030000BF03000064
:1000A000C1030000C3030000C5030000351F0000AA
:1000B0002D200000CB030000CD030000CF03000083
:1000C000D1030000D3030000D5030000D7030000D4
:1000D000D9030000DB030000DD030000DF030000A4
:1000E000E1030000E3030000E5030000E703000074
:1000F000E9030000EB030000ED030000EF03000044
:10010000F1030000F3030000F5030000F703000013
:10011000F9030000FB030000FD030000FF030000E3
:1001200001040000030400000504000007040000AF
:10013000090400000B0400000D0400000F0400007F
:10014000110400001304000015040000170400004F
:10015000190400001B0400001D0400001F0400001F
:1001600021040000230400002504000027040000EF
:10017000290400002B0400002D0400002F040000BF
:100180003104000033040000000000000000000003
:100190004FF0000BDFF8BE020068DFF8B612096806
:1001A00001F0030100F01C00142801D14BF0020BF8
:1001B000002901D04BF0010BBBF1000F05D0A7487F
:1001C000A749DFF8722200F09FF8A64880470BF09D
:1001D000020ABAF1000F0CD0DFF86E02DFF86E12DF
:1001E00002680B680FB44FF000024FF0FF0302608B
:1001F0000B609D484FF000024FF00103022808D128
:10020000DFF83A120A60DFF83E120A60DFF83212B5
:100210000B60012808D1DFF82A120A60DFF82612E5
:100220000A60DFF81A120B609048002809D1904844
:100230009049914A00F030F890489149914A00F075
:100240002BF891489149924A00F026F8914892493A
:10025000DFF8E22100F058F8BBF1000F10D08F4812
:100260008F49DFF8D62100F04FF80BF0020ABAF1FF
:10027000000F05D00FBC02600B6000BFAFF3008021
:10028000DFF820020FF2030E00474FF000004FF09E
:100290000001DFF814F2FEE72DE9F841884225D08D
:1002A000B2EB010200D5FEE740EA010313F00303BD
:1002B00002D000F01DF819E04FF000039046121133
:1002C000F7D09A421CBFF0C8F0C103F10103F8D186
:1002D00008F00F08B8F1000F08D004780C7000F196
:1002E000010001F10101B8F10108F6D1BDE8F88182
:1002F00008B54FF0000303780B7000F1010001F125
:100300000101013AF7D108BD884237D000F0030659
:10031000002E14D04FF00405A5EB06044FF008079B
:1003200007FB06F8914669FA08F9002C07D080F817
:10033000009069FA07F900F10100013CF5E74FF080
:1003400000060F46091A88460911914614461546BB
:10035000B14206D018BFA0E8340206F10106B1424E
:10036000F8D108F00F08B8F1000F07D002704FEA7B
:10037000322200F10100B8F10108F4E77047FEE70E
:10038000FEE7FEE7FEE7FEE7FEE7FEE7FEE7FEE745
:10039000FEE7FEE7FEE7FEE7FEE7FEE7FEE7FEE735
:1003A000FEE7FEE7FEE7FEE7FEE7FEE7FEE7FEE725
:1003B000FEE7FEE7FEE7FEE7FEE7FEE7FEE7FEE715
:1003C000FEE7FEE7FEE7FEE7FEE7FEE7FEE7FEE705
:1003D000FEE7FEE7FEE7FEE7FEE7FEE7FEE7FEE7F5
:1003E000FEE7FEE7FEE7FEE7FEE7FEE7FEE7FEE7E5
:1003F000FEE7FEE7FEE7FEE7FEE7FEE7FEE7FEE7D5
:10040000FEE7FEE7FEE7FEE7FEE7FEE7FEE7FEE7C4
:10041000FEE7FEE7FEE7FEE7FEE7FEE7FEE7FEE7B4
:10042000FEE7FEE7FEE7FEE7FEE7FEE7FEE7FEE7A4
:10043000FEE7FEE7704700000000A2A2A2A2008033
:100440000340088003401080034030800340348024
:1004500003403880034018080240000000F00020EC
:1004600000000120AD0400000000000001000000B9
:1004700000000060000000009001000070050060B6
:1004800070050000F0230000F02300600000002051
:100490002000002020000020300200203002002038
:1004A00000F000205D2300000D23000080B500AFA8
:1004B00000F030F8044B5B69034A43F40073536166
:1004C000FFF7B8FF00BF80BD00ED00E080B483B04F
:1004D00000AF0E4BD3F84C313B603B684FF6020245
:1004E000934204D03B680A4A934203D005E00123BB
:1004F0007B6005E002237B6002E000237B6000BF9D
:100500007B6818460C37BD4680BC704700800340AE
:1005100002F8010080B582B000AFFFF7D7FF786026
:100520007B68012B02D100F007F800E000BF00BF9C
:100530000837BD4680BD000080B400AF094BD3F83A
:100540009830084A43F48073C2F89830054BD3F8CA
:100550009830044A23F08063C2F8983000BFBD464B
:1005600080BC7047008003400000000000000000D5
:1005700010B5054C237833B9044B13B10448AFF3DD
:1005800000800123237010BD200000200000000027
:10059000C823000008B5034B1BB103490348AFF360
:1005A000008008BD0000000024000020C8230000D7
:1005B00080B483B000AF78600B46FB707B6803F0BB
:1005C00070427B685B0123F07E4323F01F031343DB
:1005D000FA789200134403F100731B68DBB21846EB
:1005E0000C37BD4680BC7047684620F007018D4639
:1005F00089B500AF044800F01BF800BFBD46BDE858
:1006000089408546704700BFE8000020684620F01A
:1006100007018D4689B500AF044800F009F800BF16
:10062000BD46BDE889408546704700BFA800002050
:1006300080B584B000AF78607B687D4A934204D077
:100640007B687C4A934200D000BE7B68784A934224
:1006500004D07B68774A934240F0DA807B681B685D
:100660001B7ADBB203F00F03FB73FB7B0C2B00F256
:10067000CD8001A252F823F0AD0600000D08000065
:10068000CB06000025070000E90600000D08000069
:10069000070700000D0800000D0800000D0800000D
:1006A0000D0800000D080000E90600007B689B6A49
:1006B000002B00D100BE7B689B6A002B00F0AA8053
:1006C0007B689B6A78689847A4E07B685B6A002B2C
:1006D00000D100BE7B685B6A002B00F09D807B68C8
:1006E0005B6A7868984797E07B681B6A002B00D1AB
:1006F00000BE7B681B6A002B00F090807B681B6A41
:10070000786898478AE07B68DB69002B00D100BEDF
:100710007B68DB69002B00F083807B68DB6978688D
:1007200098477DE07B681B68283300211846FFF757
:100730003FFF0346002B0CD07B68DB6A002B00D107
:1007400000BE7B68DB6A002B03D07B68DB6A7868BD
:1007500098477B681B68283301211846FFF728FF5C
:100760000346002B0CD07B681B6B002B00D100BE16
:100770007B681B6B002B03D07B681B6B78689847EA
:100780007B681B68283302211846FFF711FF0346D8
:10079000002B0CD07B685B6B002B00D100BE7B680C
:1007A0005B6B002B03D07B685B6B786898477B683A
:1007B0001B68283303211846FFF7FAFE0346002B77
:1007C0000CD07B689B6B002B00D100BE7B689B6BC1
:1007D000002B03D07B689B6B786898477B681B680D
:1007E000283304211846FFF7E3FE0346002B19D0F7
:1007F0007B68DB6B002B00D100BE7B68DB6B002BC2
:1008000010D07B68DB6B786898470BE000BE0AE08D
:1008100000BF08E000BF06E000BF04E000BF02E048
:1008200000BF00E000BF00BF1037BD4680BD00BF65
:10083000E8000020A800002080B483B000AF034689
:10084000FB71FB7903F01F02064997F907305B093A
:10085000012000FA02F241F8232000BF0C37BD4608
:1008600080BC704700E100E080B483B000AF034675
:10087000FB71FB7903F01F02074997F907305B0909
:10088000012000FA02F2203341F8232000BF0C3788
:10089000BD4680BC704700BF00E100E080B483B07B
:1008A00000AF0346FB71FB7903F01F02074997F97C
:1008B00007305B09012000FA02F2603341F823207F
:1008C00000BF0C37BD4680BC704700BF00E100E0B0
:1008D00080B582B000AF786039601320FFF7C4FFA5
:1008E000244B00229A601320FFF7D8FF224A7B682E
:1008F0001360224B00221A70214B00221A70214BE8
:1009000000221A60204B00221A80204B00221A601D
:100910001F4B00221A601F4A3B6813601E4B0022C7
:100920001A801E4B00221A801D4B00221A601D4B9C
:1009300000221A700F4B1B680E4A23F0200313602D
:100940000C4B1B680B4A43F010031360094B9B6868
:10095000084A23F001039360064B9B68054A43F065
:10096000020393601320FFF767FF00BF0837BD46FF
:1009700080BD00BF006001406400002060000020D6
:100980003C000020400000204400002048000020DF
:100990004C00002050000020540000205600002091
:1009A000580000206100002080B582B000AF0F4BDE
:1009B0005B68FB710D4B9B68DAB2FB791340FB71EE
:1009C000FB7903F00203BB71BB79002B01D000F06F
:1009D000E7F8FB7903F001037B717B79002B01D0F1
:1009E00000F006F800BF0837BD4680BD006001403A
:1009F00080B584B000AF634B1B78052B6DD0052B01
:100A000000F3AF80012B02D0022B39D0A9E05E4B5E
:100A10001B889BB2002B2FD05C4B1B685A4A128854
:100A200092B21146184600F009FA7860564B1B88BE
:100A30009BB21A467B6893420FD2534B1B889AB2E3
:100A40007B689BB2D31A9AB24F4B1A804F4B1A68ED
:100A50007B6813444D4A136090E04B4B00221A8090
:100A60004B4B1B68002B03D0464B02221A7085E0CB
:100A7000444B03221A7081E000BE00F0B9F97DE01A
:100A8000434B1B68002B24D0424B1B68404A126822
:100A90001146184600F0D2F9B8603D4B1B68BA68A1
:100AA0009A420CD23A4B1A68BB68D31A384A136080
:100AB000384B1A68BB681344364A13605EE0364B05
:100AC0009B68354A23F0010393602E4B03221A7072
:100AD00054E000BE00F08CF950E02D4B1B68002B59
:100AE0001BD12E4B1B68002B14D02C4B1B682948A4
:100AF00098470346264A1360254B1B68002B0CD1F0
:100B0000254B9B68244A23F0010393601D4B03226D
:100B10001A7002E000BE00F06BF91D4B1B68002B41
:100B200009D11D4B9B681C4A23F001039360154BB0
:100B300003221A7022E0174B1B68154A12681146EF
:100B4000184600F07BF9F860114B1A68FB68D31A5D
:100B50000F4A13600F4B1A68FB6813440D4A136069
:100B60000CE00D4B9B680C4A23F0010393600020BE
:100B700000F01EF9034B00221A7000BF00BF1037AF
:100B8000BD4680BD610000204400002040000020E0
:100B90004C00002048000020006001405C00002064
:100BA00080B584B000AF7C4B1B69FB81FB8923F4CB
:100BB000FF4323F07F03BB81FB89FB72774B1B78DC
:100BC000052B00F2D68001A252F823F0E50B0000BD
:100BD0005F0D00005F0D00003D0C00008B0C00005D
:100BE000330D0000BB89002B00F0CA80FB7AF12B8B
:100BF00006D0FB7A7B717B79184600F04FF9BFE095
:100C0000674B00221A80674B1B68654A128892B2B4
:100C10001344FA7A1A70624B1B889BB201339AB262
:100C20005F4B1A805F4B1B685D4A128892B2134477
:100C300000221A70594B04221A70A1E0BB89002BC4
:100C400000F0A080FB7AFB71574B1B78DBB2FA797E
:100C50009A4215D1524B00221A80524B1B68504ABF
:100C6000128892B21344FA791A704D4B1B889BB2CA
:100C700001339AB24A4B1A80484B04221A7081E021
:100C8000FB79184600F00AF97CE0BB89002B06D0FE
:100C9000FB7A3B723B7A184600F000F974E0414B56
:100CA0001A683F4B1B889BB2013B13441B78F12B06
:100CB00016D13C4B1B683A4A128892B21344FA7A16
:100CC0001A70384B1A68364B1B889BB2013B134491
:100CD0001B78184600F0E2F8304B00221A7053E0FF
:100CE0002F4B1B889AB2314B1B889A4210D2FB7A49
:100CF0007B722C4B1B682A4A128892B213447A7A70
:100D00001A70274B1B889BB201339AB2244B1A806E
:100D1000234B1B889AB2254B1B889A4234D1204B17
:100D20001B889BB2184600F043F81C4B00221A7037
:100D30002AE0BB89002B0BD11A4B1B680133FA7ACE
:100D40001A70022000F034F8144B00221A701EE0D2
:100D5000FB7ABB72BB7A184600F0A0F817E0BB899B
:100D6000002B13D0FB7ABB71BB79184600F096F8C4
:100D70000CE0002000F01CF8084B00221A7006E07E
:100D800000BF04E000BF02E000BF00E000BF00BF02
:100D90001037BD4680BD00BF0060014061000020EB
:100DA00056000020500000203C000020540000208D
:100DB00080B582B000AF0346FB800A4B1B68002B56
:100DC0000CD0084B1B68084A1268F98810469847EF
:100DD000044B00221A60054B00221A7000BF08372E
:100DE000BD4680BD5800002050000020600000205B
:100DF00080B582B000AF0E4B1B78DBB2002B13D056
:100E00000C4B1B889BB21846FFF7D2FF0A4B1B689E
:100E1000094A43F001031360074B1B6803F0010309
:100E20007B607B68002BF7D100BF0837BD4680BDD3
:100E300060000020560000200060014080B485B0B2
:100E400000AF78603960144B1B68134A23F0040329
:100E500013600023FB60104B5B6803F00103BB6071
:100E60000DE07A68FB6813441A780B4B1A61FB6833
:100E70000133FB60084B5B6803F00103BB60BB6898
:100E8000002B03D0FA683B689A42EAD3FB68184605
:100E90001437BD4680BC70470060014080B582B009
:100EA00000AF0346FB71064B1B68002B04D0044BBC
:100EB0001B68FA791046984700BF0837BD4680BDC9
:100EC0006400002080B582B000AF78600A4A7B6879
:100ED00013600A4B00221A80094B00221A70094B3A
:100EE000D3F89830084A136008490948FFF7F0FC26
:100EF00000BF0837BD4680BD6C0000206A0000209E
:100F00006800002000800340740000207000002072
:100F1000150F000080B586B000AF0346FB71FB796A
:100F2000E02B1DD141F28833FB60304BD3F8983071
:100F300003F480533B61FB68013BFB603B69002B82
:100F400002D1FB68002BF0D1294B1B68002B48D045
:100F5000274B1B68274A5178FA791046984740E09A
:100F6000FB79E12B1FD141F28833BB601F4BD3F8D3
:100F7000983003F480537B61BB68013BBB607B69A5
:100F8000002B02D0BB68002BF0D100F08BF8184B7F
:100F90001B68002B25D0164B1B68164A5178FA792E
:100FA000104698471DE0FB79F12B0FD097F90730D9
:100FB000002B02DAFB799F2B08D9FB79A02B05D0F7
:100FC000FB79B02B0DD9FB79B72B0AD8084B1B68DE
:100FD000002B06D0064B1B68064A5178FA7910465A
:100FE000984700BF1837BD4680BD00BF0080034052
:100FF0006C0000207000002080B485B000AF034674
:101000003960FB71FB79062B34D801A252F823F02A
:101010002D10000039100000451000007510000070
:10102000511000005D10000069100000174BFB60BC
:101030003B6804221A7023E0154BFB603B680322D7
:101040001A701DE0134BFB603B6805221A7017E015
:10105000114BFB603B6803221A7011E00F4BFB60E1
:101060003B6802221A700BE00D4BFB603B680222CA
:101070001A7005E03B6800221A700023FB6000BF75
:10108000FB6818461437BD4680BC7047000000203E
:1010900004000020080000201000002014000020A0
:1010A0001800002080B586B000AF0023FB75002338
:1010B0003B61694BD3F84C319BB2FB60FB684FF648
:1010C0000202934213D0FB684FF6030293420ED004
:1010D000FB684FF60402934209D0FB684FF6070203
:1010E000934204D0FB684FF60602934205D15A4A58
:1010F0005A4B1B68C2F89830A9E0FB684FF605020E
:10110000934240F0A480564B1B68DBB2FA1D114697
:101110001846FFF771FFB860FB79FB7517E04E4B7F
:10112000D3F898303B613B6923F01C033B61FB7DA6
:10113000013BBA6813441B789B003A6913433B6137
:10114000454A3B69C2F89830FB7D013BFB75FB7D4E
:10115000002BE4D1424B5B68DBB2FA1D1146184606
:10116000FFF74AFFB860FB79FB7517E03A4BD3F8FD
:1011700098303B613B6923F0E0033B61FB7D013B21
:10118000BA6813441B785B013A6913433B61324AE6
:101190003B69C2F89830FB7D013BFB75FB7D002B62
:1011A000E4D12F4B9B68DBB2FA1D11461846FFF7BE
:1011B00023FFB860FB79FB7517E0274BD3F8983015
:1011C0003B613B6923F460633B61FB7D013BBA6893
:1011D00013441B785B023A6913433B611E4A3B6927
:1011E000C2F89830FB7D013BFB75FB7D002BE4D101
:1011F0001B4BDB68DBB2FA1D11461846FFF7FCFEFD
:10120000B860FB79FB7517E0134BD3F898303B615E
:101210003B6923F460133B61FB7D013BBA681344D7
:101220001B78DB043A6913433B610B4A3B69C2F804
:101230009830FB7D013BFB75FB7D002BE4D1064B19
:10124000D3F89830044A23F48053C2F8983000BF92
:101250001837BD4680BD00BF0080034074000020E9
:101260007800002080B483B000AF0346FB71FB79A7
:1012700003F01F02064997F907305B09012000FAC5
:1012800002F241F8232000BF0C37BD4680BC7047F6
:1012900000E100E080B483B000AF0346FB71FB794E
:1012A00003F01F02074997F907305B09012000FA94
:1012B00002F2203341F8232000BF0C37BD4680BC2A
:1012C000704700BF00E100E080B483B000AF034688
:1012D000FB71FB7903F01F02074997F907305B099F
:1012E000012000FA02F2603341F8232000BF0C37DE
:1012F000BD4680BC704700BF00E100E080B584B00F
:1013000000AF78607B68314A934204D07B68304AF2
:10131000934200D000BE7B6893F904301846FFF773
:10132000B9FF84220021786801F03CF87B68012233
:101330005A620023FB810AE0FB897A680633DB00EE
:1013400013444FF0FF325A60FB890133FB81FB8964
:10135000072BF1D97B681D4A934215D17B681D4A42
:101360001A607B6802221A711B4B9B6C1A4A43F469
:10137000007393640220FFF7A7FF174B9B6C164A7C
:1013800023F40073936414E07B68144A1A607B684A
:1013900003221A71104B9B6C0F4A43F480639364D1
:1013A0000320FFF791FF0C4B9B6C0B4A23F48063E7
:1013B00093647B681B681A687B681B6822F0004294
:1013C0001A6000BF1037BD4680BD00BFAC010020D1
:1013D0002801002000100040008003400010014060
:1013E00080B58AB000AF78607B681B681B687B6241
:1013F0007B681B689B693B627B681B685B68FB6161
:101400007B681B689B6ABB617B681B681B6B7B618D
:101410007B681B685B6B3B617B681B68DB69FB60FF
:101420007B68354A93421DD17B68344A1A607B68D9
:1014300002221A71324B9B6C314A43F4007393645D
:101440000220FFF741FF2E4B9B6C2D4A23F40073C3
:1014500093647B681B681A687B681B6822F00042F3
:101460001A601CE07B68274A1A607B6803221A71A5
:10147000234B9B6C224A43F4806393640320FFF761
:1014800023FF1F4B9B6C1E4A23F4806393647B688D
:101490001B681A687B681B6822F000421A607B6A2E
:1014A00023F001037B627B681B687A6A1A607B68A1
:1014B0001B683A6A9A617B681B68FA695A607B68A4
:1014C0001B681A687B681B6842F001021A607B681F
:1014D0001B68BA699A627B681B687A691A637B68C1
:1014E0001B683A695A637B681B68FA68DA6100BF57
:1014F0002837BD4680BD00BFAC0100200010004071
:10150000008003400010014080B586B000AFF86055
:101510007A603B600B46FB72FB68454A934204D0FD
:10152000FB68444A934200D000BEFB7A072B00D9E7
:1015300000BE97F82030202B00D900BE3B68012B5D
:1015400000D800BE3B68B3F5007F00D900BE3B6801
:1015500003F00103002B00D000BEFB6893F90430B8
:101560001846FFF797FEFB68002283F88020FB688F
:101570001B681A68FB681B6822F001021A60FB688E
:101580001B681A68FB681B6842F002021A60FB685D
:101590001B681A68FB681B6842F001021A60FB7A3C
:1015A000072B3AD87B68002B0BD07B68B3F1007F08
:1015B00007D07B68B3F1807F03D07B68B3F1407FB5
:1015C0000BD1FB7A7A6842F0505242F48172F9688A
:1015D0000633DB000B445A600AE0FB7A7A6842F07B
:1015E000405242F48172F9680633DB000B445A60C2
:1015F000FB7AFA680633DB00134497F820201A724E
:101600003B685B08013B7B61FB7A7A69D1B2FA687F
:101610000633DB0013440A465A72FB6893F9043020
:101620001846FFF71FFE00BF1837BD4680BD00BF3C
:10163000AC0100202801002080B584B000AF7860A4
:101640000B46FB707B68354A934204D07B68344A72
:10165000934200D000BE7B681B681B6803F0020346
:10166000022B00D000BEFB787A680633DB001344FF
:101670005B68B3F1FF3F00D100BE7B6893F9043093
:101680001846FFF707FE7B681B689B6803F004039E
:10169000FB60FB68002B02D07868FFF7A1FE7B6837
:1016A0001B681A687B681B6822F001021A60FB78CD
:1016B0007A68126879680633DB000B445B68136054
:1016C000FB787A680633DB0013445A7A7B681B6820
:1016D0009A61FB787A680633DB0013441A7A7B68D8
:1016E0001B685A607B681B681A687B681B6842F03D
:1016F00001021A607B681B68D969FB7801229A4055
:101700007B681B680A43DA617B6893F904301846EA
:10171000FFF7A8FD00BF1037BD4680BDAC0100201B
:101720002801002080B584B000AF78600B46FB70C4
:101730007B681C4A934204D07B681B4A934200D0CA
:1017400000BE7B681B681B6803F00203022B00D0FD
:1017500000BE7B6893F904301846FFF79BFD7B6859
:101760001B689B6803F00403FB60FB68002B02D03E
:101770007868FFF735FE7B681B68D969FB78012222
:1017800002FA03F3DA437B681B680A40DA617B687C
:1017900093F904301846FFF765FD00BF1037BD46CA
:1017A00080BD00BFAC0100202801002080B58EB0B4
:1017B00000AFF860B9603B601346FB800023FB86F6
:1017C00000237B85FB68744A934204D0FB68734A0C
:1017D000934200D000BEFB681B681B6803F0020345
:1017E000022B00D000BEFA88B7F8403013447B8447
:1017F0007B8C002B02D10123FB6201E07B8CFB621E
:10180000FB681B68DA6AFB681B6842F00C02DA624C
:10181000FB681B689B6803F00403FB61FB69002BFA
:1018200002D0F868FFF7DCFDFB681B681A68FB68EC
:101830001B6822F001021A60FB681B681B6823F416
:101840007F0222F47F42FB6A1B0223F07F4323F0D6
:10185000FF03F968096813430B60FB681B680822E3
:101860005A60FB681B681A68FB681B6842F001023B
:101870001A60FB681B689B6803F040037B6209E009
:10188000FB681B681B697B61FB681B689B6803F036
:1018900040037B627B6A002BF2D00023BB860023CF
:1018A0007B86BA8EFB889A420DD2BB8EBA681344EF
:1018B0001A78FB681B685A61BB8E0133BB867B8D2F
:1018C00001337B855FE0BA8E7B8C9A425BD2FB68EA
:1018D0001B6800225A61BB8E0133BB867B8D0133AE
:1018E0007B8550E0FB681B689B6803F040037B62CC
:1018F0007B6A002B1BD1FB681B681B697B61FA8E1E
:10190000FB889A420DD37A8EB7F840309A4205D2BE
:1019100079697B8E3A681344CAB21A707B8E0133A0
:101920007B86FB8E0133FB867B8D013B7B85FB68D1
:101930001B689B6803F48073BB61BB69002B22D1D9
:101940007B8D032B1FD8BA8EFB889A420DD2BB8E9B
:10195000BA6813441A78FB681B685A61BB8E01335E
:10196000BB867B8D01337B850DE0BA8E7B8C9A42E2
:1019700009D2FB681B6800225A61BB8E0133BB860B
:101980007B8D01337B85FA8E7B8C9A42AAD300BF74
:1019900000BF3837BD4680BDAC01002028010020C3
:1019A00080B485B000AF78600023FB600DE07B68F9
:1019B0009A687B681B6913441A787B681B685A61B4
:1019C0007B681B695A1C7B681A617B681B689B6873
:1019D00003F48073002B05D17B681A697B68DB6890
:1019E0009A42E4D37B681A697B68DB689A421BD30E
:1019F0000DE07B685A697B68DB6913441A787B6861
:101A00001B685A617B68DB695A1C7B68DA617B68FA
:101A10001B689B6803F48073002B05D17B68DA692F
:101A20007B689B699A42E4D37B685B6A002B1DD07C
:101A30007B681A697B68DB689A4217D37B68DA692E
:101A40007B689B699A4211D306E07B681B68002281
:101A50005A61FB680133FB607B681B689B6803F479
:101A60008073002B02D1FB681F2BEED900BF143707
:101A7000BD4680BC704780B584B000AF78607B689D
:101A800093F88030022B15D10CE07B681B681B6932
:101A9000FB607B685B6F002B04D07B685B6FFA6830
:101AA000104698477B681B689B6803F04003002B37
:101AB000EBD02FE07B6893F88030012B23D116E028
:101AC0007B681B681B69FB607B681A6B7B68DB6A41
:101AD0009A4207D2F9687B689A6A7B681B6B134449
:101AE000CAB21A707B681B6B5A1C7B681A637B68CE
:101AF0001B689B6803F04003002BE1D00AE07B6881
:101B00001B681B69FB607B681B689B6803F04003D4
:101B1000002BF4D000BF1037BD4680BD80B586B025
:101B200000AF78607B681B6820337B617B68984AD4
:101B3000934204D07B68974A934200D000BE7B69F1
:101B40001B6803F00203002B4ED07B6893F88030B3
:101B5000022B15D10CE07B681B681B69FB607B685E
:101B60005B6F002B04D07B685B6FFA681046984768
:101B70007B681B689B6803F04003002BEBD02FE0D1
:101B80007B6893F88030012B23D116E07B681B68BB
:101B90001B69FB607B681A6B7B68DB6A9A4207D221
:101BA000F9687B689A6A7B681B6B1344CAB21A7027
:101BB0007B681B6B5A1C7B681A637B681B689B687D
:101BC00003F04003002BE1D00AE07B681B681B692F
:101BD000FB607B681B689B6803F04003002BF4D01C
:101BE0007B681B680222DA607B691B6803F00103D3
:101BF000002B11D07B6893F88030022B05D17B68D5
:101C00001B687A68926F5A6102E07868FFF7C8FE35
:101C10007B681B680122DA607B691B6803F0100394
:101C2000002B20D07868FFF726FF7B681B6A002B0B
:101C30000AD07B681B6A7A68906A7A68126B1146D0
:101C400098477868FFF7ACFE7B6801225A627B6890
:101C50001B689A6A7B681B6822F010029A627B6894
:101C60001B681022DA607B691B6803F00403002BF9
:101C70000ED07B681B68DA6A7B681B6842F004023E
:101C8000DA627868FFF7ACFB7B681B680422DA60D5
:101C90007B691B6803F00803002B2DD07B681B6851
:101CA000DA6A7B681B6842F00802DA627B6893F8A4
:101CB0008030022B11D17B681B681B6823F47F03E3
:101CC00023F47F437A68126843F4807313607B685F
:101CD0001B687A68926F5A610AE07B6893F88030DB
:101CE000012B05D17B6800221A617868FFF758FE46
:101CF0007B681B680822DA607B691B6803F020039D
:101D0000002B41D07868FFF7B6FE7B681B6B3B6108
:101D10007B681B6A002B17D07B6800225A627B68A5
:101D200000225A617B6800229A617B680022DA6196
:101D30007B681B681022DA607B681B689A6A7B6884
:101D40001B6842F010029A627B6800221A617B686D
:101D50001B68DA6A7B681B6842F00C02DA627868FA
:101D6000FFF71EFE7B6800221A637B68DB6F002B87
:101D700006D07B68DB6F7A68926A396910469847AB
:101D80007B681B682022DA6000BF1837BD4680BD23
:101D9000AC01002028010020684620F007018D4694
:101DA00089B500AF0448FFF7B9FE00BFBD46BDE8E6
:101DB00089408546704700BFAC010020684620F08E
:101DC00007018D4689B500AF0448FFF7A7FE00BFA5
:101DD000BD46BDE889408546704700BF2801002008
:101DE00080B485B000AFF860B9607A60FB704D4890
:101DF0004D4B1A68F97813469B001344DB010344EA
:101E000003F5E27319604949474B1A6813469B0072
:101E100013449B000B440433FA681A604349424B55
:101E20001A6813469B0013449B000B440833BA689E
:101E30001A603E493C4B1A6813469B0013449B00B2
:101E40000B440C331B683948374A11681A0C1204CA
:101E50000B469B000B449B0003440C331A607B68C9
:101E6000B3F5803F0FD97B68A3F58033304A136107
:101E7000BB6803F580332E4AD360FB6803F58033DB
:101E80002B4A93601AE02949274B1A6813469B0096
:101E900013449B000B440C331B687A6892B21146C2
:101EA0002248214A1268194313469B0013449B00A1
:101EB00003440C3319601E4B00221A611B491A4B54
:101EC0001A6813469B0013449B000B440C331B6899
:101ED0001648154A126843F4E00113469B00134468
:101EE0009B0003440C3319600E490F4B1A681346CC
:101EF0009B001344DB010B4403F5E07301221A60DD
:101F00000849094B1A6813469B001344DB010B4434
:101F100003F5E67300221A6000BF1437BD4680BC8B
:101F2000704700BF00002842A00000200040014090
:101F300088000020684620F007018D4689B500AF73
:101F4000354A364B1B6803F52873012142F82310EC
:101F50003349324B1A6813469B0013449B000B44D1
:101F60000C331B682E482D4A126823F4E0011346F7
:101F70009B0013449B0003440C331960274B1B68E0
:101F80000133264A1360254B1B68042B02D1234BD7
:101F900000221A60234B1B69002B17D0224B1B68B1
:101FA000042B03D1204B00221A6004E01E4B1B6857
:101FB00001331D4A13601B4B98681A4BD968194BA3
:101FC0001A69184B1B7DFFF70BFF1EE01449134BDA
:101FD0001A6813469B0013449B000B440C331B6888
:101FE00003F4E003002B10D10C4B00221A600E4BBF
:101FF00000221A600B4B01221A700A4B5B68002BFF
:1020000003D0084B5B680120984700BFBD46BDE880
:1020100089408546704700BF00002842A400002088
:102020000040014088000020A0000020684620F009
:1020300007018D4681B583B000AF394B1B683B600B
:102040003B6803F470633B603B68002B2FD035493D
:10205000354B1A6813469B001344DB010B4403F510
:1020600002731B68002B0AD0304B02221A702F4BD0
:102070005B68002B03D02D4B5B68022098472949F1
:10208000294B1A6813469B001344DB010B4403F5EC
:1020900003731B68002B0AD0244B03221A70234BB6
:1020A0005B68002B03D0214B5B68032098471C4BD7
:1020B0001B683B603B6803F470433B603B68002B4C
:1020C0000AD01A4B04221A70184B5B68002B03D0FD
:1020D000164B5B680420984700237B6014E011498D
:1020E0007A6813469B001344DB010B4403F5E47349
:1020F00001221A600B4A7B6803F52873012142F81C
:1021000023107B6801337B607B68032BE7D900BF1A
:1021100000BF0C37BD46BDE881408546704700BF13
:102120000040014000002842A40000208800002058
:1021300080B586B002AF0F23BB8100237B600023F4
:10214000BB6000210948FFF777FA3B1D07F10C013E
:102150000822009202220548FFF728FB00210348CD
:10216000FFF7E0FA00BF1037BD4680BDAC0100208C
:1021700080B584B002AFD8237B6000233B60002190
:102180000948FFF759FA3B46391D04220092042200
:102190000548FFF70BFB00210348FFF7C3FA00BF18
:1021A0000837BD4680BD00BFAC01002080B584B0BB
:1021B00002AF06233B7100210948FFF73DFA391DA4
:1021C00000230093002301220548FFF7EFFA0021C6
:1021D0000348FFF7A7FA00BF0837BD4680BD00BF20
:1021E000AC01002080B584B002AF0D4A3B4692E8B6
:1021F000030018600433198000210A48FFF71CFA15
:10220000394600230093002306220648FFF7CEFA42
:1022100000210448FFF786FA00BF0837BD4680BD9D
:10222000B4230000AC01002080B584B002AF0E4A98
:102230003B1D1268114619800233120C1A700021DE
:102240000A48FFF7F9F9391D002300930023032200
:102250000648FFF7ABFA00210448FFF763FA00BF16
:102260000837BD4680BD00BFBC230000AC01002084
:1022700080B584B002AF0E4A3B1D1268114619802A
:102280000233120C1A7000210A48FFF7D5F9391DE4
:1022900000230093002303220648FFF787FA00215A
:1022A0000448FFF73FFA00BF0837BD4680BD00BFB6
:1022B000C0230000AC01002080B586B002AF114AF7
:1022C00007F10C031268114619800233120C1A70C0
:1022D00000237B6000233B8100210B48FFF7ACF912
:1022E0003B1D07F10C010622009203220648FFF76E
:1022F0005DFA00210448FFF715FA00BF1037BD460C
:1023000080BD00BFC4230000AC01002080B586B0B2
:1023100002AF4CF6AB537B6000233B800E48FEF7C8
:10232000EDFF0020FEF7CEFD0823009380234FF041
:10233000407200210848FFF7E7F8FFF7F9FEFFF7C2
:1023400035FFFFF715FFFFF74DFFFFF76DFFFFF7B5
:102350008FFFFFF7B1FFFEE7AC01002070B500264C
:102360000C4D0D4C641BA410A64209D100F02CF8B2
:1023700000260A4D0A4C641BA410A64205D170BD6C
:1023800055F8043B98470136EEE755F8043B98476B
:102390000136F2E7E0230000E0230000E023000024
:1023A000E423000003460244934200D1704703F83F
:1023B000011BF9E7020000ABCDEF000010000000A8
:1023C0001300000003000000F8B500BFF8BC08BC13
:1023D0009E467047F8B500BFF8BC08BC9E467047E3
:1023E00095050000710500000000000000000000DD
:1023F00000010507010507000203010507000000B1
:1024000004060700050700000607000000000000A2
:040000030000019167
:00000001FF
